{
  "_format": "hh-sol-artifact-1",
  "contractName": "campaignMaker",
  "sourceName": "contracts/crowdfund.sol",
  "abi": [
    {
      "anonymous": false,
      "inputs": [
        {
          "indexed": false,
          "internalType": "string",
          "name": "title",
          "type": "string"
        },
        {
          "indexed": false,
          "internalType": "uint256",
          "name": "requiredAmount",
          "type": "uint256"
        },
        {
          "indexed": false,
          "internalType": "address",
          "name": "passedcampaignAddress",
          "type": "address"
        },
        {
          "indexed": false,
          "internalType": "string",
          "name": "image",
          "type": "string"
        },
        {
          "indexed": true,
          "internalType": "string",
          "name": "category",
          "type": "string"
        },
        {
          "indexed": true,
          "internalType": "uint256",
          "name": "timestamp",
          "type": "uint256"
        },
        {
          "indexed": true,
          "internalType": "address",
          "name": "campaignOwner",
          "type": "address"
        }
      ],
      "name": "campaignCreated",
      "type": "event"
    },
    {
      "inputs": [
        {
          "internalType": "uint256",
          "name": "",
          "type": "uint256"
        }
      ],
      "name": "campaignAddress",
      "outputs": [
        {
          "internalType": "address",
          "name": "",
          "type": "address"
        }
      ],
      "stateMutability": "view",
      "type": "function"
    },
    {
      "inputs": [
        {
          "internalType": "string",
          "name": "_title",
          "type": "string"
        },
        {
          "internalType": "uint256",
          "name": "_requiredAmount",
          "type": "uint256"
        },
        {
          "internalType": "string",
          "name": "_story",
          "type": "string"
        },
        {
          "internalType": "string",
          "name": "_image",
          "type": "string"
        },
        {
          "internalType": "string",
          "name": "_category",
          "type": "string"
        }
      ],
      "name": "makeCampaign",
      "outputs": [],
      "stateMutability": "nonpayable",
      "type": "function"
    }
  ],
  "bytecode": "0x608060405234801561001057600080fd5b506113a3806100206000396000f3fe60806040523480156200001157600080fd5b50600436106200003a5760003560e01c80633459d06c146200003f578063a197a571146200005f575b600080fd5b6200005d6004803603810190620000579190620003b3565b62000095565b005b6200007d6004803603810190620000779190620004b7565b620001b4565b6040516200008c91906200052e565b60405180910390f35b60008585858533604051620000aa90620001f4565b620000ba959493929190620005ef565b604051809103906000f080158015620000d7573d6000803e3d6000fd5b5090506000819080600181540180825580915050600190039060005260206000200160009091909190916101000a81548173ffffffffffffffffffffffffffffffffffffffff021916908373ffffffffffffffffffffffffffffffffffffffff1602179055503373ffffffffffffffffffffffffffffffffffffffff164283604051620001659190620006a3565b60405180910390207f5c41bfb63fad789600b126ce80f387db0d8b0c61e4fec5e1595adc87a6d8e99e89898689604051620001a49493929190620006bc565b60405180910390a4505050505050565b60008181548110620001c557600080fd5b906000526020600020016000915054906101000a900473ffffffffffffffffffffffffffffffffffffffff1681565b610c56806200071883390190565b6000604051905090565b600080fd5b600080fd5b600080fd5b600080fd5b6000601f19601f8301169050919050565b7f4e487b7100000000000000000000000000000000000000000000000000000000600052604160045260246000fd5b6200026b8262000220565b810181811067ffffffffffffffff821117156200028d576200028c62000231565b5b80604052505050565b6000620002a262000202565b9050620002b0828262000260565b919050565b600067ffffffffffffffff821115620002d357620002d262000231565b5b620002de8262000220565b9050602081019050919050565b82818337600083830152505050565b6000620003116200030b84620002b5565b62000296565b90508281526020810184848401111562000330576200032f6200021b565b5b6200033d848285620002eb565b509392505050565b600082601f8301126200035d576200035c62000216565b5b81356200036f848260208601620002fa565b91505092915050565b6000819050919050565b6200038d8162000378565b81146200039957600080fd5b50565b600081359050620003ad8162000382565b92915050565b600080600080600060a08688031215620003d257620003d16200020c565b5b600086013567ffffffffffffffff811115620003f357620003f262000211565b5b620004018882890162000345565b955050602062000414888289016200039c565b945050604086013567ffffffffffffffff81111562000438576200043762000211565b5b620004468882890162000345565b935050606086013567ffffffffffffffff8111156200046a576200046962000211565b5b620004788882890162000345565b925050608086013567ffffffffffffffff8111156200049c576200049b62000211565b5b620004aa8882890162000345565b9150509295509295909350565b600060208284031215620004d057620004cf6200020c565b5b6000620004e0848285016200039c565b91505092915050565b600073ffffffffffffffffffffffffffffffffffffffff82169050919050565b60006200051682620004e9565b9050919050565b620005288162000509565b82525050565b60006020820190506200054560008301846200051d565b92915050565b600081519050919050565b600082825260208201905092915050565b60005b83811015620005875780820151818401526020810190506200056a565b8381111562000597576000848401525b50505050565b6000620005aa826200054b565b620005b6818562000556565b9350620005c881856020860162000567565b620005d38162000220565b840191505092915050565b620005e98162000378565b82525050565b600060a08201905081810360008301526200060b81886200059d565b90506200061c6020830187620005de565b81810360408301526200063081866200059d565b905081810360608301526200064681856200059d565b90506200065760808301846200051d565b9695505050505050565b600081905092915050565b600062000679826200054b565b62000685818562000661565b93506200069781856020860162000567565b80840191505092915050565b6000620006b182846200066c565b915081905092915050565b60006080820190508181036000830152620006d881876200059d565b9050620006e96020830186620005de565b620006f860408301856200051d565b81810360608301526200070c81846200059d565b90509594505050505056fe60806040523480156200001157600080fd5b5060405162000c5638038062000c568339818101604052810190620000379190620003c1565b84600590805190602001906200004f929190620000d4565b50826001908051906020019062000068929190620000d4565b5083600381905550816002908051906020019062000088929190620000d4565b50806000806101000a81548173ffffffffffffffffffffffffffffffffffffffff021916908373ffffffffffffffffffffffffffffffffffffffff16021790555050505050506200050b565b828054620000e290620004d5565b90600052602060002090601f01602090048101928262000106576000855562000152565b82601f106200012157805160ff191683800117855562000152565b8280016001018555821562000152579182015b828111156200015157825182559160200191906001019062000134565b5b50905062000161919062000165565b5090565b5b808211156200018057600081600090555060010162000166565b5090565b6000604051905090565b600080fd5b600080fd5b600080fd5b600080fd5b6000601f19601f8301169050919050565b7f4e487b7100000000000000000000000000000000000000000000000000000000600052604160045260246000fd5b620001ed82620001a2565b810181811067ffffffffffffffff821117156200020f576200020e620001b3565b5b80604052505050565b60006200022462000184565b9050620002328282620001e2565b919050565b600067ffffffffffffffff821115620002555762000254620001b3565b5b6200026082620001a2565b9050602081019050919050565b60005b838110156200028d57808201518184015260208101905062000270565b838111156200029d576000848401525b50505050565b6000620002ba620002b48462000237565b62000218565b905082815260208101848484011115620002d957620002d86200019d565b5b620002e68482856200026d565b509392505050565b600082601f83011262000306576200030562000198565b5b815162000318848260208601620002a3565b91505092915050565b6000819050919050565b620003368162000321565b81146200034257600080fd5b50565b60008151905062000356816200032b565b92915050565b600073ffffffffffffffffffffffffffffffffffffffff82169050919050565b600062000389826200035c565b9050919050565b6200039b816200037c565b8114620003a757600080fd5b50565b600081519050620003bb8162000390565b92915050565b600080600080600060a08688031215620003e057620003df6200018e565b5b600086015167ffffffffffffffff81111562000401576200040062000193565b5b6200040f88828901620002ee565b9550506020620004228882890162000345565b945050604086015167ffffffffffffffff81111562000446576200044562000193565b5b6200045488828901620002ee565b935050606086015167ffffffffffffffff81111562000478576200047762000193565b5b6200048688828901620002ee565b92505060806200049988828901620003aa565b9150509295509295909350565b7f4e487b7100000000000000000000000000000000000000000000000000000000600052602260045260246000fd5b60006002820490506001821680620004ee57607f821691505b60208210811415620005055762000504620004a6565b5b50919050565b61073b806200051b6000396000f3fe6080604052600436106100705760003560e01c80639632e7201161004e5780639632e720146100f6578063b17fac2214610121578063ed88c68e1461014c578063f3ccaac01461015657610070565b806346c922d11461007557806348b9ef40146100a05780634a79d50c146100cb575b600080fd5b34801561008157600080fd5b5061008a610181565b6040516100979190610501565b60405180910390f35b3480156100ac57600080fd5b506100b561020f565b6040516100c2919061053c565b60405180910390f35b3480156100d757600080fd5b506100e0610215565b6040516100ed9190610501565b60405180910390f35b34801561010257600080fd5b5061010b6102a3565b604051610118919061053c565b60405180910390f35b34801561012d57600080fd5b506101366102a9565b6040516101439190610598565b60405180910390f35b6101546102cd565b005b34801561016257600080fd5b5061016b6103da565b6040516101789190610501565b60405180910390f35b6001805461018e906105e2565b80601f01602080910402602001604051908101604052809291908181526020018280546101ba906105e2565b80156102075780601f106101dc57610100808354040283529160200191610207565b820191906000526020600020905b8154815290600101906020018083116101ea57829003601f168201915b505050505081565b60035481565b60058054610222906105e2565b80601f016020809104026020016040519081016040528092919081815260200182805461024e906105e2565b801561029b5780601f106102705761010080835404028352916020019161029b565b820191906000526020600020905b81548152906001019060200180831161027e57829003601f168201915b505050505081565b60045481565b60008054906101000a900473ffffffffffffffffffffffffffffffffffffffff1681565b60035460045410610313576040517f08c379a000000000000000000000000000000000000000000000000000000000815260040161030a90610660565b60405180910390fd5b60008054906101000a900473ffffffffffffffffffffffffffffffffffffffff1673ffffffffffffffffffffffffffffffffffffffff166108fc349081150290604051600060405180830381858888f19350505050158015610379573d6000803e3d6000fd5b50346004600082825461038c91906106af565b9250508190555042343373ffffffffffffffffffffffffffffffffffffffff167fe6add99d06d9ad7fc456e746aa162eed6211c5002ef2dacdd67b8d2016822fba60405160405180910390a4565b600280546103e7906105e2565b80601f0160208091040260200160405190810160405280929190818152602001828054610413906105e2565b80156104605780601f1061043557610100808354040283529160200191610460565b820191906000526020600020905b81548152906001019060200180831161044357829003601f168201915b505050505081565b600081519050919050565b600082825260208201905092915050565b60005b838110156104a2578082015181840152602081019050610487565b838111156104b1576000848401525b50505050565b6000601f19601f8301169050919050565b60006104d382610468565b6104dd8185610473565b93506104ed818560208601610484565b6104f6816104b7565b840191505092915050565b6000602082019050818103600083015261051b81846104c8565b905092915050565b6000819050919050565b61053681610523565b82525050565b6000602082019050610551600083018461052d565b92915050565b600073ffffffffffffffffffffffffffffffffffffffff82169050919050565b600061058282610557565b9050919050565b61059281610577565b82525050565b60006020820190506105ad6000830184610589565b92915050565b7f4e487b7100000000000000000000000000000000000000000000000000000000600052602260045260246000fd5b600060028204905060018216806105fa57607f821691505b6020821081141561060e5761060d6105b3565b5b50919050565b7f526571756972656420616d6f756e742065786365656465640000000000000000600082015250565b600061064a601883610473565b915061065582610614565b602082019050919050565b600060208201905081810360008301526106798161063d565b9050919050565b7f4e487b7100000000000000000000000000000000000000000000000000000000600052601160045260246000fd5b60006106ba82610523565b91506106c583610523565b9250827fffffffffffffffffffffffffffffffffffffffffffffffffffffffffffffffff038211156106fa576106f9610680565b5b82820190509291505056fea264697066735822122028628f4dd3d8a31d90c09200961b05e04a6d01c7a8920d968a47912f5c60ddf864736f6c634300080a0033a2646970667358221220b78b5359aa5da104e5ecabbd00c57c78c9f5ea31723c0a08395c28a30ee9166364736f6c634300080a0033",
  "linkReferences": {},
  "deployedLinkReferences": {}
}